:020000040800F2
:1000000068060020D5010008DD010008DF010008B6
:10001000E1010008E3010008E5010008000000001C
:10002000000000000000000000000000E7010008E0
:10003000E901000800000000EB010008ED010008E4
:10004000EF010008EF010008EF010008EF010008D0
:10005000EF010008EF010008EF010008EF010008C0
:10006000EF010008EF010008EF010008EF010008B0
:10007000EF010008EF010008EF010008EF010008A0
:10008000EF010008EF010008EF010008EF01000890
:10009000EF010008EF010008EF010008EF01000880
:1000A000EF010008EF010008EF010008EF01000870
:1000B000EF010008EF010008EF010008EF01000860
:1000C000EF010008EF010008EF010008EF01000850
:1000D000EF010008EF010008EF010008EF01000840
:1000E000EF010008EF010008EF010008EF01000830
:1000F000EF010008EF010008EF010008EF01000820
:10010000EF010008EF010008EF010008EF0100080F
:10011000EF010008EF010008EF010008EF010008FF
:10012000EF010008EF010008EF010008EF010008EF
:1001300000F002F800F03AF80AA090E8000C8244BF
:100140008344AAF10107DA4501D100F02FF8AFF29C
:10015000090EBAE80F0013F0010F18BFFB1A43F0A5
:1001600001031847D0040000F0040000103A24BF37
:1001700078C878C1FAD8520724BF30C830C144BF0C
:1001800004680C607047000000230024002500264E
:10019000103A28BF78C1FBD8520728BF30C148BFEA
:1001A0000B6070471FB51FBD10B510BD00F035F8CE
:1001B0001146FFF7F7FF00F021FA00F053F803B4FF
:1001C000FFF7F2FF03BC00F05BF8000080F3088843
:1001D000704700000948804709480047FEE7FEE7EE
:1001E000FEE7FEE7FEE7FEE7FEE7FEE7FEE7FEE7E7
:1001F00004480549054A064B70470000E904000819
:100200003101000868000020680600206802002014
:1002100068020020704770477047754600F02CF860
:10022000AE4605006946534620F00700854618B0E3
:1002300020B5FFF7DDFFBDE820404FF000064FF08E
:1002400000074FF000084FF0000B21F00701AC460B
:10025000ACE8C009ACE8C009ACE8C009ACE8C0092A
:100260008D46704710B50446AFF300802046BDE8C8
:100270001040FFF7A4BF00000048704704000020B2
:1002800001491820ABBEFEE72600020070470000BF
:100290000149C860704700000020024030B50446A4
:1002A00004254FF4302000F089F80546042D17D1BD
:1002B0000C48006940F002000A49086108464461A0
:1002C000006940F0400008614FF4302000F076F8FB
:1002D00005460448006941F6FD710840014908617E
:1002E000284630BD0020024004200B49C96801F0B7
:1002F000010109B101200EE00749C96801F00401BC
:1003000009B1022007E00449C96801F0100109B1F0
:10031000032000E0042070470020024004200B4925
:10032000C96801F0010109B101200EE00749C9685F
:1003300001F0040109B1022007E00449C96801F095
:10034000100109B1032000E00420704700200240A2
:100350000348006940F080000149086170470000CF
:100360000020024070B504460D460426F00200F05D
:1003700025F80646042E11D10948006940F0010015
:10038000074908612580F00200F018F80646044885
:10039000006941F6FE71084001490861304670BDB0
:1003A0000020024002480349486003484860704703
:1003B0002301674500200240AB89EFCD00B502461E
:1003C0000423FFF791FF034603E0FFF78DFF034689
:1003D000521E012B01D1002AF7D102B9052318467C
:1003E00000BD10B502460B460020002100BF04E00E
:1003F00032F811400444A0B2491C9942F8D310BD10
:1004000010B500F001F810BD0CB50020019000906F
:100410003348006840F480303149086000BF3048FC
:10042000006800F4003000900198401C0190009892
:1004300018B90198B0F5A06FF1D12948006800F40F
:10044000003010B10120009001E0002000900098E1
:10045000012843D12348006840F01000214908607A
:100460000846006820F0030008600846006840F075
:10047000020008601A484068194948600846406808
:1004800048600846406840F480604860084640681C
:1004900020F47C1048600846406840F4E81048604A
:1004A0000846006840F08070086000BF0C48006893
:1004B00000F000700028F9D00948406820F00300DF
:1004C000074948600846406840F00200486000BFA5
:1004D0000348406800F00C000828F9D10CBD00006A
:1004E000001002400020024010B51348006840F0A0
:1004F00001001149086008464068104908400E494B
:100500004860084600680E4908400B4908600846E4
:10051000006820F4802008600846406820F4FE004F
:1005200048604FF41F008860FFF76AFF4FF00060DB
:100530000449086010BD0000001002400000FFF8F0
:10054000FFFFF6FE08ED00E070B548E04FF4A03183
:100550002748FFF746FF4FF6FF7188422FD1FFF77C
:1005600021FF3520FFF794FE00240AE0214901EB2A
:10057000C420FFF793FE00BFFFF7D0FE0128FBD099
:10058000641C502CF2D31C480668002413E0184960
:1005900031F8145000BFFFF7C1FE0128FBD0154908
:1005A00001EB44002946FFF7DDFE00BFFFF7B6FE72
:1005B0000128FBD0641CB442E9D3FFF7C9FEFFF762
:1005C000F1FE3520FFF764FE0B48801EFFF766FE44
:1005D00000BFFFF7A3FE0128FBD0FFF7B9FE0648D6
:1005E000801E00884AF6AA218842AFD070BD000064
:1005F00000A002080020000802F00708FFF7A4FF8F
:1006000011E00948006809490840B0F1005F0AD1CB
:10061000054840680649086003490868FFF7D6FDA9
:10062000034800688047ECE7002000080000FE2F28
:100630000000002054060008000000200400000014
:100640006C01000858060008040000206406000041
:08065000880100080000000011
:0400000508000131BD
:00000001FF
:102000005850002041220008492200084B220008B5
:102010004D2200084F220008512200080000000055
:102020000000000000000000000000005322000833
:1020300055220008000000004F23000845730008E7
:102040005B2200085B2200085B2200085B2200087C
:102050005B2200085B2200085B2200085B2200086C
:102060005B2200085B2200085B220008C1440008D4
:102070005B2200085B2200085B2200085B2200084C
:102080005B2200085B2200085B2200085B2200083C
:102090005B2200085B2200085B2200085B2200082C
:1020A0005B2200085B2200085B2200085B2200081C
:1020B0005B220008DD9E00085B2200085B2200080E
:1020C0005B2200085B2200085B2200085B220008FC
:1020D0005B2200085B2200085B2200085B220008EC
:1020E0005B2200085B2200085B2200085B220008DC
:1020F0005B2200085B2200085B2200085B220008CC
:102100005B2200085B2200085B2200085B220008BB
:102110000DA400085B2200085B2200085B22000877
:102120005B2200085B2200085B2200085B2200089B
:1021300000F002F800F05AF80AA090E8000C82447F
:102140008344AAF10107DA4501D100F04FF8AFF25C
:10215000090EBAE80F0013F0010F18BFFB1A43F085
:1021600001031847C8AB0000E8AB00000A444FF079
:10217000000C10F8013B13F0070408BF10F8014BE6
:102180001D1108BF10F8015B641E05D010F8016B2B
:10219000641E01F8016BF9D113F0080F1EBF10F88F
:1021A000014BAD1C0C1B09D16D1E58BF01F801CBB2
:1021B000FAD505E014F8016B01F8016B6D1EF9D535
:1021C0009142D6D37047000000230024002500264A
:1021D000103A28BF78C1FBD8520728BF30C148BF8A
:1021E0000B6070471FB51FBD10B510BD00F05EF845
:1021F0001146FFF7F7FF08F0B9FF00F07CF803B4D1
:10220000FFF7F2FF03BC00F07FF8000072B67047E2
:1022100062B67047EFF3108072B6704780F3108893
:10222000704730BF704720BF7047B0FA80F07047EA
:1022300090FAA0F0B0FA80F0704790FAA0F07047E2
:102240000948804709480047FEE7FEE7FEE7FEE74A
:10225000FEE7FEE7FEE7FEE7FEE7FEE70448054986
:10226000054A064B704700000D9E0008312100080A
:10227000584A002058500020584C0020584C00204C
:1022800070477047704710B500F008F8006810BD3F
:1022900010B5044600F002F8046010BD0048704715
:1022A000F849002000487047F84900207546FFF7BC
:1022B000F9FFAE4605006946534620F00700854603
:1022C00018B020B5FFF7CAFFBDE820404FF0000668
:1022D0004FF000074FF000084FF0000B21F007010E
:1022E000AC46ACE8C009ACE8C009ACE8C009ACE851
:1022F000C0098D46704710B50446AFF300802046F4
:10230000BDE81040FFF77BBF01491820ABBEFEE7D8
:1023100026000200704700001D484FF0FF010170C9
:10232000002080F309881B48016881F308881A4857
:102330004FF08051016062B6FEE717484FF08051C0
:102340000160704714484FF080510160704772B6C9
:10235000EFF3098028B1203880E8F00F0F490968B1
:10236000086000B50E4880475DF804EB0D480E4943
:102370000A78027009480D490A680260106890E8FE
:10238000F00F203080F309884EF0F40E62B67047EB
:1023900022ED00E06000002004ED00E05800002085
:1023A000C57100082D0000202E0000205C000020D8
:1023B00010B502210F4800F0F5F800210E4802F098
:1023C0001FF932200C490839C86001210A4802F07F
:1023D00017F90121074800F0F3F8064808300068B3
:1023E00040F002000349083108600121014800F073
:1023F00086F910BD002401400800024000B591B0EC
:102400000121480206F038F90121082006F034F9CC
:102410000121102006F030F94FF4004006F000F9D9
:102420000120ADF8400000208DF8430010A9584865
:1024300002F04AFC0220ADF8400000208DF8430075
:1024400010A9534802F040FC0120ADF840000020E4
:102450008DF8430010A94F4802F036FC0820ADF873
:10246000400000208DF8430010A94A4802F02CFCDF
:102470000420ADF8400000208DF8430010A9454825
:1024800002F022FC0121084606F0D6F842480090EE
:1024900042480190002002903220039000200490D6
:1024A0008020059040000690800007900020089052
:1024B0004FF40050099000200A906946384802F015
:1024C000CAF80121364802F09BF801220221344863
:1024D00002F0B8F800200B9001208DF830008DF844
:1024E00031004FF460200D9000200E9005208DF8F3
:1024F0003C000BA928484C3800F078F8072301224B
:10250000082125484C3800F099F8072302220921B8
:1025100021484C3800F092F8072303220A211E4874
:102520004C3800F08BF8072304220C211A484C3851
:1025300000F084F8072305220D2117484C3800F0DD
:102540007DF8012114484C3800F03AF80121124876
:102550004C3800F02AF810484C3800F0CBF800BF97
:102560000D484C3800F037F80028F9D10A484C38AB
:1025700000F0D0F800BF08484C3800F02CF80028D4
:10258000F9D1012104484C3800F0B9F811B000BD70
:10259000000C0140001001404C240140684900201B
:1025A00008000240CA430260704721B1826842F0CD
:1025B0000102826003E0826822F0010282607047BB
:1025C00021B1826842F48072826003E0826822F462
:1025D000807282607047014600208A6802F004021F
:1025E0000AB1012000E000207047000030B502462B
:1025F0000020002350680F4C20400D790C6844EAFD
:1026000005242043506090680B4C2040D1E90254CF
:102610002C434D7944EA450420439060D06A20F46D
:1026200070000C7C641EE4B2234340EA0350D06285
:1026300030BD0000FFFEF0FFFDF7F1FFF0B50446EE
:102640000D4600200021092D11DDE068A5F10A06E4
:1026500006EB4607072606FA07F18843A5F10A06A6
:1026600006EB460603FA06F10843E0600CE0206939
:1026700005EB4507072606FA07F1884305EB4506F3
:1026800003FA06F108432061072A0FDA606B561E31
:1026900006EB86071F2606FA07F18843561E06EB4F
:1026A000860605FA06F10843606322E00D2A0FDA78
:1026B000206BD61F06EB86071F2606FA07F1884314
:1026C000D61F06EB860605FA06F10843206310E0E4
:1026D000E06AA2F10D0606EB86071F2606FA07F14F
:1026E0008843A2F10D0606EB860605FA06F10843BB
:1026F000E062F0BD816841F008018160704721B15E
:10270000826842F4A002826003E0826822F4A002A0
:1027100082607047816841F0040181607047000069
:1027200053485449086054484860544888605448A5
:10273000C860544808615448486154488861544806
:10274000C8615448086254484862544888625448F2
:10275000C8625448086354484863544888635448DE
:10276000C8655448086654484866544888665448C2
:10277000C866544808675448C1F884005348C1F8F3
:1027800088005348C1F898005248C1F89C0052484C
:10279000C1F8A0005148C1F8AC005148C1F8B000E0
:1027A0005048C1F8B4005048C1F8B8004F48C1F8CB
:1027B000BC004F48C1F8C0004E48C1F8C4004E48A4
:1027C000C1F8C8004D48C1F8CC004D48C1F8D00050
:1027D0004C48C1F8DC004C48C1F8E0004B48C1F857
:1027E000E4004B48C1F8E8004A48C1F8EC004A4808
:1027F000C1F844014948C1F848014948C1F85001AD
:102800004848C1F854014848C1F864014748C1F834
:1028100068014748C1F86C014648C1F87001464854
:10282000C1F874014548C1F878014548C1F88C01E8
:102830004448C1F890014448C1F894014348C1F8A4
:1028400098014348C1F89C014248C1F8A0014248A0
:10285000C1F8A4014148C1F8A8014148C1F8BC0130
:102860004048C1F8C0014048C1F8C40170470000A9
:10287000B587000858420020D1960008F19600085C
:102880005598000875980008D9870008658B0008DE
:10289000F98700080988000841850008518500086B
:1028A000298A0008398A0008C1880008D1880008F0
:1028B000A9940008D1930008B19200081193000870
:1028C0007193000831940008F5910008D18A00083E
:1028D00069880008BD8A00081988000879910008F5
:1028E00095910008618E00087D8E0008758D0008A6
:1028F000918D00080995000825950008A58C000811
:10290000C18C000841880008E18500089185000815
:10291000F985000861850008D58B000849910008F9
:10292000998B0008C58F00080590000821900008C9
:1029300099900008B590000835920008519200085F
:10294000CD95000899950008818F00084D8F0008EB
:102950000D8C0008298C0008FD95000819960008C8
:10296000018B00083D8D00089596000870B5002485
:10297000304890F84C0000F0F000802805D12D4838
:1029800090F84C0000F00F0030B100202A49088078
:102990002A482B49086070BD0020264981F8B00103
:1029A0000021244880F8B11123480088401C2249A6
:1029B000088008460088B0F5967F00DAEBE7002033
:1029C0001D4908801B4890F8F801C0F3401058BB1F
:1029D000184890F8F801C0F3001028BB1548D0F84B
:1029E000B81118480AF062F80546124801682846EE
:1029F00009F0CAFC04461449204609F063FE07D2D8
:102A00001249204609F05EFF02D20A48046002E043
:102A10000020084908600748D0F8FC0120F00100B8
:102A2000401C0449C1F8FC0100210248C16400BFF8
:102A3000B1E7000088090020A4000020B95A00086E
:102A4000940000200000B44200002041000020C19A
:102A50001CB5002400BF00F027F821E069460020E3
:102A600002F018FA48B90F480168009809F08CFC88
:102A70000C49C1F8B80100240DE0142C02DA601CE6
:102A800084B208E00748D0F8F80120F010001030B8
:102A90000449C1F8F80101AA0021022004F0DAFB80
:102AA000DCE700008809002008B506F065FF03F0A8
:102AB000A5F96946182006F009FF9DF8000038289E
:102AC00001D1002008BD4FF0FF30FBE708B500BF83
:102AD0000BE000F067FB02F033FA0449C1F8F4019F
:102AE0006A4600211E2004F0B5FBF2E788090020A9
:102AF00010B5204890F84C00282803D01E481F49E4
:102B0000086010BD00201B4981F8B001486B4FF0F0
:102B10007E5109F039FC04461648816D204609F0C3
:102B2000D1FE08D21349486B4FF07E5109F02CFCBE
:102B30001049486518E00F49886B4FF07E5109F045
:102B4000B5FF04460B48816D204609F0BBFD08D255
:102B50000849886B4FF07E5109F0A8FF0549486588
:102B600002E00448816D41650121024880F8B111FD
:102B700000BFC6E788090020252C00089800002027
:102B800010B50C4890F84C00252803D00A480B4992
:102B9000086010BD0020074981F8B001888F09F056
:102BA0007DFD044948650121024880F8B11100BF4C
:102BB000EFE7000088090020252C0008980000207D
:102BC00010B5144890F84C0000F0F000202818D1FF
:102BD0001048D0F8F801C0F3807068B90D48D0F8FB
:102BE000F801C0F3006038B907F054FD00F0B6F901
:102BF0000948006880470BE00021064880F8B111C1
:102C000006E00648064908600021024880F8B11134
:102C100010BD00008809002098000020B95A000863
:102C20009400002000211F4880F8B11190F84C005A
:102C3000242803D11C481D49086032E0194890F847
:102C40004C00252803D11A481849086029E0154886
:102C500090F84C00282806D1164814490860002135
:102C60001048C1651DE00F4890F84C00212803D1A1
:102C700011480E49086014E00A4890F84C002228D8
:102C800003D10E48094908600BE0064890F84C0053
:102C9000202803D10A480549086002E009480A498A
:102CA0000860704788090020592E0008980000200D
:102CB000812B0008F12A0008CD2C00084D2D0008BA
:102CC000C12D0008B95A000894000020194890F856
:102CD0004C00212808D000201749087017490880A7
:102CE00017481849086070470020124981F8B00160
:102CF000154910484165114801880088401C0F4A59
:102D0000108041F27070814204DC0121094880F892
:102D1000B1110DE00948008844F25061884204DC9A
:102D20000021044880F8B11102E000200349088026
:102D300000BFD8E788090020A6000020A8000020D6
:102D4000252C0008980000200000704210B517489C
:102D500090F84C00222803D015481649086010BD91
:102D60000020124981F8B001D1F8B801124909F0E8
:102D70009DFE0446114909F0A5FD08D20B49886B58
:102D80004FF0804109F092FE0849486507E0074985
:102D9000486B4FF0804109F0F7FA0449486501217A
:102DA000024880F8B11100BFD9E70000880900206F
:102DB000252C0008980000200000B442CDCCCC3D6A
:102DC00010B5224890F84C00202803D02048214913
:102DD000086010BD01201D4981F8B001886B4FF0DB
:102DE0007E5109F063FE04461848D0F8F4112046DD
:102DF00009F068FC08D81549886B4FF07E5109F03E
:102E000055FE124948651AE01049486B4FF07E5153
:102E100009F0BAFA04460D48D0F8F411204609F03A
:102E200051FD08D80949486B4FF07E5109F0ACFAC2
:102E30000649486503E00548D0F8F41141650121D1
:102E4000024880F8B11100BFC3E7000088090020E4
:102E5000252C00089800002010B50C4890F84C0074
:102E6000242803D00A480B49086010BD00200749F8
:102E700081F8B001888F09F011FC044948650121EF
:102E8000024880F8B11100BFEFE700008809002078
:102E9000252C00089800002010B501214FF0C050EB
:102EA00005F0DAFB012005F049F8002000F042F8B7
:102EB000002000F02BF800F01FF8002005F03EF88D
:102EC00010BD10B5042000F027F84AF6AA21884268
:102ED00001D1002010BD4FF0FF30FBE710B50120FD
:102EE00005F02CF84AF6AA21042000F029F8002069
:102EF00005F024F810BD00000348008840F00100F0
:102F00000149088070470000346C004001490860A6
:102F10007047000088860D4208B5014600200090E9
:102F2000034800900098084400900098008808BD6D
:102F3000006C0040014908607047000000860D42A7
:102F400008B500220092044A0092009A02440092BE
:102F5000009A116008BD0000006C00400E4890F817
:102F60004C00242817D00C4890F84C00252809D193
:102F70000948D0F8F801C0F3007060B92021064874
:102F8000C16408E00448D0F8F801C0F3007010B143
:102F900025210148C1647047880900200146084680
:102FA000044A1268904203D9024A1268801A00E06B
:102FB000002070477400002070B5002500BFFFF7A7
:102FC00029F9054600BF0648046800BF2846FFF7F8
:102FD00025F900BF2046FFF7E1FF0646304670BDE9
:102FE0007800002070B50025FFF7E6FF044600BF1B
:102FF000FFF710F9054600BF00200449086000BF34
:103000002846FFF70BF900BF204670BD780000206E
:1030100000B509480088401C074908800748008817
:1030200018B900F039F80649086004480088401CC7
:103030000249088000BD0000680000206A000020EE
:103040006C00002000B50F480088401E0D4A10801B
:1030500010460088A0B900F01FF80B4A1060104617
:1030600000680A4A1268811A09480068884201D239
:103070000748016007480068884201D2054801609E
:1030800000BD00006A000020700000206C000020DD
:10309000780000207C000020014840687047000054
:1030A000001000E030B502460B46002100244FF628
:1030B000FF7000BF12E0555C684000240AE000F099
:1030C000010525B140104AF20105684000E04010BA
:1030D000651CECB2082CF2DB4D1CA9B29942EADB6C
:1030E00030BD00002DE9F74F82B0894614464846AE
:1030F00009F01EF90746224A224B08F095FE0546C4
:1031000008F054FB81462049204609F00FFB824617
:1031100009F00EF907461A4A1A4B08F085FE0546D3
:1031200008F044FB044619480168029809F0BEFC07
:10313000824609F0FDF80746154A164B08F074FE62
:10314000054608F033FB02902146484607F022FE70
:10315000009009F0EDF805460F4A104B08F064FEA8
:10316000074600220E4B08F053FB824608F01EFB78
:103170000190DDE9011002F0E9FC05B0BDE8F08F37
:10318000D5CC5A0A48FB0F3F000080BFC00000208A
:10319000EC51B81E85EB713FD3DEE00B93A94C4098
:1031A0000080564000B5C3B00020429000214191FC
:1031B00040913F913E913D913C913B913A913991A3
:1031C00038913791369135913491339132913191D3
:1031D00030912F912E912D912C912B912A91299103
:1031E0002891279126912591249123912291219133
:1031F00020911F911E911D911C911B911A91FE48C7
:10320000B0F864103E91B0F866103D91B0F86810C7
:103210003C91DDE93C213E9802F016F8409040F2E6
:103220006C71419129E04FF4C871419890FBF1F223
:1032300001FB120010B94FF4B77118E04198C217A2
:10324000199000EB927082101998A0EB820060B97F
:103250006421419890FBF1F201FB120010B14FF490
:10326000B77104E040F26D1101E040F26D113F983A
:1032700001443F914198401C41903E9941988842B9
:10328000D1DBDDE93F1001443F91DB4841683891D3
:1032900081683791C1683691B0F86A103B91B0F8F7
:1032A0006C103A91B0F86E103991399809F0DEF946
:1032B00035903A9808F051FDCDE91601359809F09E
:1032C00037F80022CD4BCDE9120108F055FBCDE9CE
:1032D0001401DDE9162308F09BFACDE9180108F086
:1032E00065FA35903B9808F038FDCDE91401359822
:1032F00009F01EF80022C14BCDE9100108F03CFB9B
:10330000CDE91201DDE9142308F082FA0022BC4B5A
:10331000CDE9160108F030FBCDE9180108F046FAB6
:1033200035903F98401C09F0A1F93490B549369882
:1033300009F09EF80F9008F0FBFFCDE912013598D7
:1033400008F0F6FF4FF08042AF4BCDE90E0108F0D8
:103350005FFACDE91001DDE9122308F0FFFECDE9A7
:103360001601349808F0E4FFCDE91401DDE91623D5
:1033700008F04EFACDE9180108F018FA3490A34984
:10338000349809F093FBA249199009F071F8339031
:10339000339808F0CDFF9F4A9F4BCDE90E0108F00E
:1033A00043FD9E4A9E4BCDE9100108F031FACDE96C
:1033B0001401339808F0BCFFCDE91201DDE91423B4
:1033C00008F032FD974A984BCDE9160108F020FA33
:1033D000CDE9180108F0EAF932904FF4B47132984F
:1033E00002F0E0FE3290339808F0A2FF8F4A904B33
:1033F000CDE90E0108F018FD8E4A894B373BCDE927
:10340000100108F09FFECDE91401339808F090FFF9
:10341000CDE91201DDE9142308F006FD864A874B49
:10342000CDE9160108F0F4F9CDE9180108F0BEF96C
:103430003190339808F07CFF814A824BCDE90E0130
:1034400008F0F2FC804A814BCDE9100108F0E0F968
:10345000CDE91401339808F06BFFCDE91201DDE9E5
:10346000142308F0E1FC7A4A7A4BCDE9160108F002
:1034700069FECDE9180108F099F930907648319944
:1034800009F054F975490A9008F0F2FF0B9008F022
:103490004FFF734A734BCDE90C0108F0C5FCCDE931
:1034A0000E0108F083F9109007F0ECFF119008F07E
:1034B0003FFF6D4A6D4BCDE9120108F0B5FCCDE937
:1034C0001601339808F034FF694A6A4BCDE90801C8
:1034D00008F0AAFC684A694BCDE90A0108F032FEFF
:1034E000CDE90E014FF08040319909F01FF95B4999
:1034F000049008F0BDFF059008F01AFF584A594B98
:10350000CDE9060108F090FCCDE9080108F04EF97C
:103510000A9007F0B7FF0B9008F00AFFCDE90C0105
:10352000DDE90E2308F080FCCDE91201339808F0A4
:10353000FFFE534A534BCDE9020108F075FC524A95
:10354000524BCDE9040108F063F9CDE90801339845
:1035500008F0EEFECDE90601DDE9082308F064FC81
:103560004B4A4C4BCDE90A0108F0ECFDCDE90E01C8
:103570003A49319808F07CFF059008F0D9FE384AA6
:10358000384BCDE9060108F04FFCCDE9080108F001
:103590000DF90A9007F076FF0B9008F0C9FECDE90F
:1035A0000C01DDE90E2308F03FFCCDE91001DDE957
:1035B000122308F02DF9CDE91401DDE9162308F0F6
:1035C00027F9CDE9180108F0F1F82F902F993298DA
:1035D00008F0DAFE2E90339808F0AAFE2E4A2F4B00
:1035E000CDE9140108F020FC2D4A2E4BCDE916013F
:1035F00008F0A8FD58E000008809002000004E40B7
:10360000000038400000C041D56C424164A1154A19
:1036100000AD0E47C0AB8A15DADE333F2F8672A2AB
:103620001894E14046CEC29E768771400CDB60F272
:103630005025243F2AC6F99BC91F0C3C7758764079
:1036400000D864FC6001813E03E35F521C0A063F20
:1036500080035D72111C913F000040400000344324
:103660004AD8124DFB2109402C616D8C9DF0323FF0
:10367000E31A9FC9FE791A3F958098840B79943F8D
:10368000B75F3E59315CED3EAEF36F97FDBA733FC5
:10369000F6B2EDB435A2FE3F068195438B389E40CD
:1036A000C3F5285C8F425F40CDE9180108F07EF831
:1036B0004290FE49429808F0DBFE0B9008F038FE7D
:1036C000FB4AFC4BCDE90C0108F0AEFBCDE90E0145
:1036D00008F06CF8109007F0D5FE119008F028FE65
:1036E000F54AF64BCDE9120108F09EFBCDE9160133
:1036F0002E9808F01DFEF24AF24BCDE9120108F0B7
:103700002DFDCDE91401DDE9162308F027FDCDE9F3
:10371000180108F04BF82D90339808F009FEEA4A9A
:10372000EA4BCDE9000108F07FFBE94AE94BCDE91E
:10373000020108F007FDCDE90601339808F0F8FD15
:10374000CDE90401DDE9062308F06EFBE24AE34B14
:10375000CDE9080108F05CF8CDE90C01339808F0D8
:10376000E7FDCDE90A01DDE90C2308F05DFBDC4A49
:10377000DC4BCDE90E0108F0E5FC0022DA4BCDE987
:10378000100108F0F9F80022D84BCDE9120108F039
:103790003FF80022D44BCDE9140108F0EDF80022E7
:1037A000D34BCDE9160108F033F8CDE9180107F045
:1037B000FDFF2C90BD49429808F05AFE0B9008F08E
:1037C000B7FDBB4ABB4BCDE90C0108F02DFBCDE9A1
:1037D0000E0107F0EBFF109007F00AFC119008F0C3
:1037E000A7FDC44AC44BCDE9120108F01DFBCDE989
:1037F00016012C9808F09CFDCDE91401DDE9162393
:1038000008F006F8CDE9180107F0D0FF2B90A74982
:103810002D9808F02DFE099008F08AFDA44AA54BCA
:10382000CDE90A0108F000FBCDE90C0107F0BEFF6D
:103830000F9007F027FE9D4911902B9808F018FE75
:10384000099008F075FD9A4A9A4BCDE90A0108F0F3
:10385000EBFACDE90C0107F0A9FF0F9007F012FE7B
:103860001090119908F062FF129007F001FA13907E
:1038700008F05EFD8E4A8F4BCDE9140108F07CF80C
:1038800000229E4BCDE9160108F0CEFACDE91801D1
:1038900007F08CFF2A904FF080412B9808F0E8FD4C
:1038A0008249109008F0E4FD119008F041FD804A33
:1038B000804BCDE9120108F0B7FACDE9140107F009
:1038C00075FF179007F0B8FE4FF0804119902B98C4
:1038D00008F0CEFD7549109008F0CAFD119008F06F
:1038E00027FD734A734BCDE9120108F09DFACDE92B
:1038F000140107F05BFF179007F09EFE18901999CE
:1039000008F014FF29906949319808F0B1FD07903B
:1039100008F00EFD664A674BCDE9080108F084FA0D
:1039200000224FF08043CDE90A0108F07DFACDE98D
:103930000C0107F03BFF0E9007F0A4FD0F9008F07C
:10394000F7FCCDE91201309808F0F2FCCDE90E0148
:10395000309808F0EDFC0022694BCDE90A0108F02F
:1039600063FACDE90C01DDE90E2308F05DFACDE93B
:103970001001DDE9122308F057FACDE916014B4991
:10398000329808F075FD039008F0D2FC484A494B84
:10399000CDE9040108F048FA00225A4BCDE90601AE
:1039A00008F042FACDE9080107F000FF0A9007F09D
:1039B00069FD0B9008F0BCFCCDE90E01299808F0D8
:1039C000B7FCCDE90A01299808F0B2FC00224E4B61
:1039D000CDE9060108F028FACDE90801DDE90A235E
:1039E00008F022FACDE90C01DDE90E2308F01CFAFB
:1039F000CDE912012D49329808F03AFD039008F004
:103A000097FC2B4A2B4BCDE9040108F00DFA00225C
:103A10004FF08043CDE9060108F006FACDE9080130
:103A200007F0C4FE0A9007F0E3FA20490C903198A1
:103A300008F01EFD039008F07BFC1D4A1D4BCDE9EC
:103A4000040108F0F1F9CDE9060107F0AFFE089096
:103A500007F018FD0A904FF08140309908F066FE9B
:103A60000890299908F062FE09900A9908F05EFE14
:103A70000B900C9908F05AFE0C490E90319808F002
:103A8000F7FC039008F054FC094A0A4BCDE9040105
:103A900008F0CAF9CDE9060107F088FE089007F0A2
:103AA000F1FC0A904FF0804030992FE00000344341
:103AB0004AD8124DFB210940F94ECC7A3194733F1C
:103AC0001FBAA0BE654E773FD61A4AED45B45D3F9A
:103AD000BEA4315A4755433FB81E85EB5168474055
:103AE000A69BC420B072354000004E4000003A4012
:103AF00000003740F168E388B5F8643F0080664015
:103B00000000F43F000010400000E03F08F00EFE0F
:103B100009900A9908F00AFEFE490C90329808F0C4
:103B2000A7FC019008F004FCFB4AFC4BCDE9020124
:103B300008F07AF900224FF08043CDE9040108F043
:103B400073F9CDE9060107F031FE099007F09AFC00
:103B50000A90299908F0EAFD0B900C9908F0A6FF4D
:103B60000D900E9908F010FC0F9008F0E1FBCDE9E4
:103B70001001DDE9122308F0F1FACDE91401DDE9C5
:103B8000162308F0EBFACDE9180107F00FFE42907A
:103B9000429808F0CDFBE04AE04BCDE9120107F076
:103BA000EBFE0022DE4BCDE9140108F03DF90022C6
:103BB000DC4BCDE9160108F037F9CDE9180107F023
:103BC000F5FD2890D3492A9808F052FC079008F098
:103BD000AFFBD14AD14BCDE9080108F025F9CDE979
:103BE0000A0107F0E3FD0D9007F026FDC9490F908B
:103BF000379808F03DFC079008F09AFBC64AC74B7F
:103C0000CDE9080108F010F9CDE90A0107F0CEFD71
:103C10000D9007F011FD0E900F9908F087FDBD493A
:103C200011902A9808F024FC059008F081FBBA4A0C
:103C3000BA4BCDE9060108F0F7F8CDE9080107F025
:103C4000B5FD0B9007F0D4F9B2490D90379808F004
:103C50000FFC059008F06CFBAF4AB04BCDE90601B4
:103C600008F0E2F8CDE9080107F0A0FD0B9007F09D
:103C7000BFF90C900D9908F059FD0F90AA4807F074
:103C8000B7F90E900F9908F0F3FB1090119908F016
:103C90000DFF129006F05EFF139008F049FB9E4A5C
:103CA0009E4BCDE9140107F067FE00229C4BCDE945
:103CB000160108F0B9F8CDE9180107F077FD279053
:103CC0009A49369808F032FD18904FF081403899A3
:103CD00008F02CFD9649159008F056FE169028998C
:103CE00008F0E4FE1790189908F04EFB91491990DE
:103CF00008F0BEFB26904FF08141279808F016FD92
:103D00008C49189008F0B4FB1990269908F03CFEF5
:103D100025904FF08141279808F008FD85491890BB
:103D200008F0A6FB1990269908F02EFB24907F48F6
:103D3000369908F0FBFC19904FF08140389908F053
:103D4000F5FC7C491790359808F0F0FC15902899FF
:103D500008F01AFB1690179908F016FB189019999D
:103D600008F0A4FE23904FF4B461239802F01AFAED
:103D700023900021239808F0A5FC09D24FF081413F
:103D8000239808F075FB6349199008F08FFE08E04E
:103D90004FF08141239808F06BFB5E49199008F0C1
:103DA00085FE22905B49229808F062FB079008F09C
:103DB000BFFA594A594BCDE9080108F035F8CDE969
:103DC0000A0107F0F3FC0D9007F012F951490F902A
:103DD0002A9808F04DFB059008F0AAFA4E4A4F4B7E
:103DE000CDE9060108F020F8CDE9080107F0DEFC76
:103DF0000B9007F0FDF847490D90379808F038FB15
:103E0000059008F095FA444A444BCDE9060108F0C4
:103E10000BF8CDE9080107F0C9FC0B9007F0E8F8B2
:103E20000C900D9908F082FC0E900F9908F07EFC22
:103E3000384911902A9808F01BFB079008F078FA8F
:103E4000354A364BCDE9080107F0EEFFCDE90A010E
:103E500007F0ACFC0D9007F015FB2E490F9037983A
:103E600008F006FB079008F063FA2B4A2B4BCDE9CC
:103E7000080107F0D9FFCDE90A0107F097FC0D9082
:103E800007F000FB0E900F9908F050FC109011996C
:103E900008F07AFA129006F05DFE139008F048FAE6
:103EA0001D4A1E4BCDE9140107F066FD00221C4B94
:103EB000CDE9160107F0B8FFCDE9180107F076FC4F
:103EC00021901D48219908F0F1FD2090114920987A
:103ED00008F0CEFA139008F02BFA0F4A0F4BCDE9F9
:103EE000140107F0A1FFCDE9160107F05FFC19905E
:103EF00007F0A2FB1F901F99084608F017FC1990C5
:103F00001F9908F013FC1E90DDE91E0108F00EFC5D
:103F1000199013E0000034434AD8124DFB210940A8
:103F2000008066400000104041ECCA3F0000704233
:103F3000000034440000B4440000B4421F9908F06B
:103F4000F5FB1D90FE49209808F0BCFC02D2002031
:103F50000146B8E0FB49209808F0B4FC45D21D9812
:103F600008F0E6F902460B46CDE91001F648F7499C
:103F700007F002FDCDE914011E9808F0D9F90246B8
:103F80000B46CDE90C01F248F24907F0F5FCCDE90A
:103F90001001F149209808F06BFA059008F0C8F973
:103FA000EE4AEF4BCDE9060107F03EFFCDE90801EF
:103FB00007F0FCFB0A9007F03FFB0B9008F0B8F904
:103FC00002460B46CDE90C01E648E74907F0D4FC70
:103FD000CDE90E01DDE9102308F0C0F8CDE91201AA
:103FE000DDE9142307F014FC6DE0209808F0A0F937
:103FF0004FF06632DD4BCDE9140108F013F843D2DF
:10400000209808F095F9DA4ADA4BCDE9000107F07B
:104010000BFFCF4A5242D84BCDE9020107F0F8FB23
:10402000CDE90601209808F083F9CDE90401DDE926
:10403000062307F0F9FED14AD14BCDE9080107F07C
:10404000E7FBCDE90C01209808F072F9CDE90A01EF
:10405000DDE90C2307F0E8FEC84ACA4BCDE90E01A2
:1040600007F0D6FBCDE91201209808F061F9CDE9FF
:104070001001DDE9122307F0D7FE0022C24BCDE983
:10408000140107F0C5FB1EE0B349209808F0F0F9D1
:104090000D9008F04DF9B14AB14BCDE90E0107F092
:1040A000C3FECDE9100107F081FB129007F0C4FABE
:1040B000139008F03DF902460B46CDE91401B348D0
:1040C000B34907F059FC0022B24BCDE9160107F0C5
:1040D00053FCCDE9180107F069FB1C901C9920984E
:1040E00008F052F91B900021229808F0EBFB7CD2DB
:1040F0009949219808F0BCF9039008F019F9974AFA
:10410000974BCDE9040107F08FFECDE9060107F0DA
:104110004DFB099007F0B6F98F490B90379808F0DE
:10412000A7F9039008F004F98C4A8D4BCDE90401FE
:1041300007F07AFECDE9060107F038FB099006F09A
:1041400057FF0A900B9908F0F1FA83490D902A98CD
:1041500008F08EF9039008F0EBF8804A804BCDE927
:10416000040107F061FECDE9060107F01FFB09908D
:1041700007F088F978490B90219808F079F90190B7
:1041800008F0D6F8754A764BCDE9020107F04CFEEF
:10419000CDE9040107F00AFB079006F029FF6E49FC
:1041A0000990379808F064F9019008F0C1F86B4A5B
:1041B0006B4BCDE9020107F037FECDE9040107F0B2
:1041C000F5FA079007F05EF90890099908F0AEFA41
:1041D0000A900B9908F06AFC0C900D9908F048F9C8
:1041E0000E9006F0B7FC0F9000E01DE008F0A0F87C
:1041F0005A4A5B4BCDE9100107F0BEFB0022664B2B
:10420000CDE9120107F010FE0022634BCDE9140145
:1042100007F0FEFACDE9160107F0C8FA4FF4B471C1
:10422000199001F0BFFFC7E04B49219808F020F931
:10423000039008F07DF8494A494BCDE9040107F0A5
:10424000F3FDCDE9060107F0B1FA099007F01AF97C
:1042500041490B90379808F00BF9039008F068F883
:104260003E4A3F4BCDE9040107F0DEFDCDE90601F2
:1042700007F09CFA099006F0BBFE0A900B9908F033
:1042800055FA35490D902A9808F0F2F8039008F095
:104290004FF8324A324BCDE9040107F0C5FDCDE9B4
:1042A000060107F083FA099007F0ECF82A490B9011
:1042B000219808F0DDF8019008F03AF8274A284BD9
:1042C000CDE9020107F0B0FDCDE9040107F06EFA77
:1042D000079006F08DFE20490990379808F0C8F83D
:1042E000019008F025F81D4A1D4BCDE9020107F0A9
:1042F0009BFDCDE9040107F059FA079007F0C2F8D9
:104300000890099908F012FA0A900B9908F0CEFB70
:104310000C900D9908F0ACF80E9006F01BFC0F9075
:1043200008F006F80D4A0E4BCDE9100107F024FB0A
:104330000022194BCDE9120107F076FD00222DE095
:104340000000AA420000A0403677F4BF5C8B163F05
:10435000EC51B81E85EBB13F000034434AD8124DF2
:10436000FB210940CDCCCCCCCC0C4D406666E2BFE5
:104370008D976E1283C0E63F7A9429C09A999999D5
:1043800099D95940993180C0001C9B401283C0CA02
:10439000A1C534C00020AC4000806640214BCDE96F
:1043A000140107F0CFFECDE9160107F0FFF94FF435
:1043B000B471199001F0F6FE1A901B49259808F087
:1043C000B5F91A49C1F8E4011749249808F0AEF983
:1043D0001649C1F8E8011A98C1F8F0011B9807F0D6
:1043E000A7FF0022124BCDE9180107F01BFE04D8ED
:1043F00010490E48C0F8EC1112E01B9807F098FF26
:1044000000220D4BCDE9180107F0D2FC04D20B4974
:104410000648C0F8EC1103E004491B98C1F8EC0110
:1044200043B000BD00E080400000C041880900208A
:10443000004056400000B242004056C00000B2C2E8
:1044400001201749888200200860A1F844005A2002
:1044500088872D20A1F842001248486312488863DB
:104460005A20C887A1F84000400708610F488860BB
:104470000F4848604FF08240C8600E4848620E48BE
:104480000862002088623C20C885122088854FF48D
:10449000967048860E20088608488861704700009C
:1044A0008809002000003442000007430000F0416A
:1044B0000000F242CDCC8C409A99F93F0000404078
:1044C00010B5022000F0A8F8002864D03248006837
:1044D00020F002003049086000212F480838FEF71C
:1044E0000EF900212C480838FEF76AF8022000F087
:1044F00079F800202949087031E000212848274A2E
:10450000127840F822100020264908701EE0254944
:10451000097801EB8101214A12781144224A32F8CC
:10452000110008F0BBF804461D481C4A127850F8E8
:104530002210204607F028FF1949184A127841F83E
:10454000220018480078401C164908701548007869
:104550000A28DCDB11480078401C104908700F481D
:1045600000780528C9DB0E480068104908600C482F
:1045700040680F4908600A4880680E49086008488A
:10458000C0680D490860064800690C4908600021B0
:104590000B4800F035F810BD082401400C01002044
:1045A000CC4900200D0100206849002010010020A6
:1045B0001401002018010020200100201C0100200F
:1045C0000800024010B504460021054800F018F824
:1045D0000348001D04600121001F00F011F810BD08
:1045E0005804024000F0805111B10349086001E015
:1045F0000249486070470000040402400000024085
:1046000021B1026842F00102026004E002684FF644
:10461000FE731A400260704701460020002201F03C
:10462000805313B1054B1A6801E0054B1A6802EA82
:1046300001030BB1012000E000207047000402409C
:10464000000002401AB103680B43036002E00368F4
:104650008B430360704710B50022026847F6F07381
:104660009A430C6A8B6823430C6923434C692343A8
:104670008C692343CC6923434C6A23438C6A2343CC
:104680001A430260CB6843600B6883604B68C36069
:1046900010BD0C2105E00C2100BF0A1EA1F1010193
:1046A000FBD1021EA0F10100F5D1704706E04821C0
:1046B00000BF0A1EA1F1010359B2FADA021EA0F1ED
:1046C000010358B2F3DA704710B51449D1F8CC01A0
:1046D000134907F0F7FF15D812480078401C11491C
:1046E000087008460078142817DB002008700B4873
:1046F000D0F8F80120F0806000F180600749C1F82F
:10470000F8010AE00020074908700448D0F8F801D1
:1047100020F080600149C1F8F80110BD880900202F
:1047200000007041BC00002010B5414890F8B30172
:10473000012838D100203F4908803F480088401CAC
:104740003D49088008460088052804DA3848D0F832
:10475000B8013A49086038480088B0F5167F65DD31
:104760000020354908803248D0F8B8113348006835
:1047700008F09CF904464FF03F4107F0A3FF09D22F
:104780002B48D0F8F80120F00200801C2849C1F81D
:10479000F8014BE02648D0F8F80120F00200244947
:1047A000C1F8F80142E0224890F8B301022838D15C
:1047B0000020214908801F480088401C1D490880AE
:1047C00008460088052804DA1948D0F8B8011B49C2
:1047D000086018480088B0F5167F27DD00201549CD
:1047E00008801348D0F8B8111448006808F05EF942
:1047F00004464FF07C5108F065F809D20C48D0F817
:10480000F80120F00200801C0949C1F8F8010DE010
:104810000748D0F8F80120F002000549C1F8F80176
:1048200004E00020044908800249088010BD00000F
:1048300088090020BA000020B8000020B400002041
:1048400070B54D4890F8B201002864DD4A4A91697C
:10485000D2F8BC0108F036F80CD94748D0F8BC11A2
:10486000464807F063FF044643488169204608F044
:1048700029F81DD800204249087042480078401CA1
:10488000404908700846007807F07EFA0446002286
:104890003D4B07F0C7FB0BD200203A490870364861
:1048A000D0F8F80120F00100401C3349C1F8F801AC
:1048B00031498869354907F039FF04462E48D0F858
:1048C000BC11204607F0FEFF2AD82B4988693049E1
:1048D00007F02CFF04462848D0F8BC11204607F00A
:1048E000F1FE1DD826480078401C2549087008466E
:1048F0000078642814DD00200870224908701E48E2
:10490000D0F8F80120F001001B49C1F8F80100209F
:104910002049087004E000201949087019490870FE
:10492000154890F8F80100F0010008B31A48008813
:10493000401C1949088008460088B0F5966F1ADDBA
:104940000020088013480078401C1249087008466F
:104950000078082808DA0848D0F8F80120F00100AB
:104960000549C1F8F80106E009200A49087002E08B
:1049700000200949088070BD88090020000080BF20
:10498000AC000020AD00002000002C406666663FB1
:10499000666666BFAE000020B000002010B53A4940
:1049A000886B4FF0804107F0EFFC04463648D0F8A2
:1049B000B811204607F086FE14D234480078401C17
:1049C000324908700846007832285CDD34200870CF
:1049D0002D48D0F8F80120F0080008302A49C1F825
:1049E000F80150E02849486B4FF0804108F05EF82C
:1049F00004462548D0F8B811204607F063FF14D2CA
:104A000022480078401C2149087008460078322866
:104A100039DD342008701C48D0F8F80120F004007B
:104A2000001D1949C1F8F8012DE01749886B4FF0B6
:104A30007E5108F03BF804461348D0F8B8112046E0
:104A400007F040FF1FD21049486B4FF07E5107F02E
:104A50009BFC04460C48D0F8B811204607F032FE03
:104A600011D20020094908700748D0F8F80120F059
:104A700004000549C1F8F8010846D0F8F80120F013
:104A80000800C1F8F80110BD88090020B20000201C
:104A900010B500F0E1F8352000F01EF800240AE01F
:104AA0000B4901EBC42000F01DF800BF00F05AF8DC
:104AB0000128FBD0641C502CF2D3064800F012F8F9
:104AC00000BF00F04FF80128FBD000F065F810BDE2
:104AD00000A0020800F007080149C8607047000004
:104AE0000020024030B5044604254FF4302000F089
:104AF000BFF80546042D17D10C48006940F00200AC
:104B00000A49086108464461006940F040000861B4
:104B10004FF4302000F0ACF805460448006941F637
:104B2000FD71084001490861284630BD002002405F
:104B300004200B49C96801F0010109B101200EE010
:104B40000749C96801F0040109B1022007E00449DE
:104B5000C96801F0100109B1032000E0042070478A
:104B60000020024004200B49C96801F0010109B18D
:104B700001200EE00749C96801F0040109B10220D3
:104B800007E00449C96801F0100109B1032000E001
:104B900004207047002002400348006940F0800074
:104BA00001490861704700000020024070B50446CA
:104BB0000D460426F00200F05BF80646042E11D1E3
:104BC0000948006940F00100074908612580F002AA
:104BD00000F04EF806460448006941F6FE710840B0
:104BE00001490861304670BD0020024078B5064694
:104BF0000C46042500200090E80200F039F8054634
:104C0000042D24D11348006940F0010011490861C6
:104C10003480E80200F02CF80546042D10D1B01CB9
:104C20000090200C00990880E80200F021F8054669
:104C30000848006941F6FE7108400649086106E02F
:104C40000448006941F6FE7108400249086128469F
:104C500078BD000000200240024803494860034834
:104C6000486070472301674500200240AB89EFCDC3
:104C700000B502460423FFF75BFF034603E0FFF79E
:104C800057FF0346521E012B01D1002AF7D102B96A
:104C90000523184600BD000010B500F0A3FC4FF43A
:104CA00049400849A1F8AC0100F02CFB0549B1F8D6
:104CB000AC1108430349A1F8AC0109210148A0F84F
:104CC000AE1110BD880900202DE9F04102460025F3
:104CD0000026002000230024002791F803C00CF0D8
:104CE0000F0591F803C00CF0100CBCF1000F03D0BD
:104CF00091F802C04CEA050591F800C0BCF1000F24
:104D000031D0146800202BE04FF0010C0CFA00F3B6
:104D1000B1F800C00CEA03069E4220D183004FF098
:104D20000F0C0CFA03F7BC4305FA03FC4CEA04042D
:104D300091F803C0BCF1280F06D14FF0010C0CFA1A
:104D400000FCC2F814C00AE091F803C0BCF1480F9F
:104D500005D14FF0010C0CFA00FCC2F810C0401C49
:104D60000828D1D31460B1F800C0BCF1FF0F34DDC6
:104D7000546800202EE000F1080C4FF0010808FAFA
:104D80000CF3B1F800C00CEA03069E4221D1830067
:104D90004FF00F0C0CFA03F7BC4305FA03FC4CEA86
:104DA000040491F803C0BCF1280F05D100F1080CF0
:104DB00008FA0CF8C2F8148091F803C0BCF1480F4F
:104DC00007D100F1080C4FF0010808FA0CF8C2F8FE
:104DD0001080401C0828CED35460BDE8F08100004C
:104DE000F0B50A46002300240021002500F000460B
:104DF000B6F1004F02D11D4EF16901E01B4E716802
:104E0000C0F3034583B200F44016B6F5401F08D145
:104E100021F07061154E766826F07066134F7E6043
:104E200012E000F48016B6F5801F06D1032606FABC
:104E300005F4A14341F0706106E0460D360103FA26
:104E400006F6B14341F0706122B1460D360103FA16
:104E500006F6314300F00046B6F1004F02D1034E92
:104E6000F16101E0014E7160F0BD00000000014001
:104E70000246002093680B400BB1012000E00020A7
:104E800070474161704701617047000000487047FA
:104E9000584200202DE9F84F83460F460024002594
:104EA00000266946232004F011FD9DF8000004430C
:104EB0006946222004F00AFD200204B29DF8000099
:104EC000044369462B2004F001FD9DF800000543D2
:104ED00069462A2004F0FAFC280205B29DF8000079
:104EE000054369462D2004F0F1FC9DF800000643BF
:104EF00069462C2004F0EAFC300206B29DF800005E
:104F000006436946182004F0E1FC9DF800003828AB
:104F100013D1304607F0AAFB8046284607F0A6FBCF
:104F20008146204607F0A2FB824642464946FEF7EC
:104F3000D9F838600020BDE8F88F4FF0FF30FAE76D
:104F40002DE9F04F91B04FF0000AB549D1F8EC01CE
:104F500007F0EEF90446B34AB34B07F063F87DD887
:104F6000AF49D1F8F001B14907F0A0FDB0490E906A
:104F700007F07EFA834607F0DBF90646AD4AAE4BF2
:104F800006F052FF044606F011FC814606F030F8A8
:104F90008046A349D1F8EC01A54907F069FA834698
:104FA00007F0C6F90646A34AA34B06F03DFF0446A8
:104FB00006F0FCFB814606F03FFB41460F9005F0F2
:104FC000E9FE8246504607F0B3F98046994A9A4B6B
:104FD00006F0D2FC06460022984B06F025FF044658
:104FE00006F0E4FB82468E49D1F8F00107F0A0F903
:104FF00004460022914B06F0DBFE7DD88848816A8A
:10500000504607F05FFC79D28D49504607F05AFCB4
:1050100074D28348816A504607F048FD84490E9057
:1050200007F026FA0F9007F083F90646814A824B73
:1050300006F0FAFE044606F0B9FB834606F022FAB3
:1050400081467748416A484607F070FB80467448BD
:10505000016A404607F036FC05D800E0DBE0504628
:1050600011B0BDE8F08F6E48816A504607F01EFD12
:105070006F49029007F0FCF9039007F059F96D4A67
:105080006D4BCDE9040106F0CFFECDE9060106F037
:105090008DFB089006F0F6F983466148416A584650
:1050A00007F044FB09905E48016A099807F0E0F9AF
:1050B0000A9005F0DDFD0B9007F03AF95D4A5E4B72
:1050C000CDE90C0106F058FC064600225B4B06F0C9
:1050D000ABFE04460D465549504607F055F90646C5
:1050E00007F026F922462B46CDE90E0107F036F8E7
:1050F000804606F05BFBB3E705E0FFE74849888F91
:1051000007F0CCFAACE74648816A494807F03CF919
:105110000446514607F0D6FB78D24A49504607F07C
:10512000D1FA73D23E4A516A106A07F0A1F951468A
:105130000F903F4807F0BAFC0D903948816A0D98EE
:1051400007F022F983463A4907F092F90E9007F0EA
:10515000EFF80646374A384B06F066FE044606F07E
:1051600025FB814606F08EF980460F9907F0AAFBD1
:1051700001D8504674E72A48816A504607F096FCE9
:105180002B49019007F074F9834607F0D1F8294ABA
:10519000294BCDE9020106F047FECDE9040106F0F6
:1051A00005FB814606F06EF907901D48416A079895
:1051B00007F0BCFA08901A48016A089807F058F9F5
:1051C000804605F055FD099007F0B2F8194A1A4BD0
:1051D000CDE90A0106F0D0FB06460022174B06F087
:1051E00023FE04460D461149504607F05FFC064673
:1051F00007F09EF822462B46CDE90C0106F008FB8D
:10520000CDE90E0106F0D2FA2AE7FFE70449888FBC
:1052100007F044FA24E70249888F07F03FFA1FE7B6
:10522000880900209A9999999999B93F0000B44248
:10523000000034434AD8124DFB21094000806640EB
:105240000000404000003143F0B5034614462046BC
:105250006FF00105DE1703EB9676B610A3EB86061A
:105260002EB9642693FBF6F706FB173636B94FF4D2
:10527000C87693FBF6F706FB17360EB94FF0FF35ED
:10528000032906DA012901D1002200E01F2210447F
:105290001BE007290BDC0A4601EBD27677104E1E85
:1052A000C6EB061607EB46062E4430440DE005F12A
:1052B000D606A1F10807C7EB071706EB4707CA1F79
:1052C00002EBD27607EB66063044F0BD70B50749B5
:1052D0000748006807F02AFA0546064907F026FA4B
:1052E0000446054907F0C4F870BD0000333353404D
:1052F00018010020BE9F4E41000020470048704723
:105300002044002010B500244FF400710A48FFF734
:10531000AFFD04436006040E4FF480710648FFF7AA
:10532000A7FD04436006040E80210348FFF7A0FD9B
:105330000443204610BD00000018014070B5094923
:105340000948006807F0F2F906464FF08B4107F074
:105350008FF80546054907F0A9FB0446044907F004
:1053600087F870BD000004421001002000002543B2
:105370000000304170B509490948006807F0D6F9C6
:1053800006464FF08B4107F073F80546054907F0D4
:105390008DFB0446044907F06BF870BD0000044221
:1053A00020010020000025430000304170B509496C
:1053B0000948006807F0BAF906464FF08B4107F03C
:1053C00057F80546054907F071FB0446044907F004
:1053D0004FF870BD000004421C010020000025436E
:1053E00000003041F8B5044600266B4600229221A9
:1053F0000F4800F005FA0646BEB99DF80150BDF809
:105400000000000200B20090BDF8000000F47F40F0
:1054100000B20090BDF9000028430090BDF90000E3
:10542000C11700EB1161091221803046F8BD000060
:10543000E04900202DE9FC4705460E4617469846F0
:10544000DDE90A9A00240020009001904FF4807159
:105450006348FFF716FD4FF400716148FFF713FD35
:1054600080215F48FFF70DFD0A20FFF712F900BF0A
:105470005BE04FF480715A48FFF705FD0A20FFF703
:1054800008F9182C18DA40215548FFF7F1FC0128DB
:1054900041D12046E11704EB5171C910A4EBC102C0
:1054A000012191406A4602EBE402127811436A46F8
:1054B00002EBE40211702EE01C2C10DA4021484867
:1054C000FFF7D6FC012826D19DF80300A4F11801AE
:1054D00001228A401043C0B28DF803001BE0342C37
:1054E00019DA40213E48FFF7C3FC012813D1201DE3
:1054F000C11700EB5171C910A0EBC102012191400D
:105500006B46221D03EBE20212781143CAB2211D41
:1055100003EBE1010A704FF480713148FFF7B1FCF1
:105520000A20FFF7B6F8601CC4B2342CA1DB4FF49C
:1055300000712B48FFF7A5FC9DF8000000F00F005C
:105540009DF80010C1F3021101EB810100EB410055
:1055500028809DF8010000F00F009DF80110C1F3B4
:10556000021101EB810100EB410030809DF8020047
:1055700000F00F009DF80210C1F3011101EB810151
:1055800000EB410038809DF8040000F00F009DF80A
:105590000410C1F3011101EB810100EB4100A8F8F7
:1055A00000009DF8050000F00F009DF80510C1F304
:1055B000001101EB810100EB4100A9F800009DF80A
:1055C000060000F00F009DF80610090901EB8101AB
:1055D00000EB410000F2DA70AAF80000BDE8FC8799
:1055E0000010014008B50121402003F045F880205B
:1055F000ADF8000004208DF8030002208DF80200B1
:1056000069460A48FFF760FB4FF48070ADF8000070
:1056100069460648FFF758FB4FF40070ADF80000EC
:1056200069460248FFF750FB08BD00000018014022
:1056300018B9054A12880A8004E0012802D10A88B4
:10564000014B1A8070470000BE000020174818491F
:10565000086018484860184888601848C8601848AA
:10566000086118484861184888611848C861184896
:1056700008624862174888621748C862174808637A
:1056800017484863174888631748C8631048086478
:10569000164848640E488864C8641548086515486B
:1056A00048651548C8650A4808667047C5870008F8
:1056B00020440020CF870008E9870008FD8F0008FC
:1056C000F18E0008058E00088997000815920008E1
:1056D00031560008D994000801940008E1920008AE
:1056E00041930008A19300086D940008498A0008BE
:1056F0006598000885980008E188000870B50446A0
:105700000025A18A2069FFF7BCFB21896068FFF7AB
:10571000BAFB0120FEF7CAFFA18A2069FFF7B3FB9D
:105720000320FEF7C3FF21896068FFF7A1FB012872
:1057300000D10125A18A2069FFF7A3FB0120FEF714
:10574000B5FF284670BD70B504460D46A18A206994
:10575000FFF797FB0120FEF7A9FF21896068FFF79B
:1057600092FB00202870072620E0A18A2069FFF71D
:1057700088FB0120FEF79AFFA18A2069FFF783FBCF
:105780000320FEF793FF21896068FFF771FB012872
:1057900003D12978B04001432970A18A2069FFF71D
:1057A00070FB0220FEF782FF701E46B2002EDCDA8C
:1057B00070BD38B504460121206802F05DFF01216B
:1057C000E06802F059FF2089ADF8000014208DF840
:1057D000030003208DF8020069466068FFF774FA41
:1057E00021896068FFF74FFBA08AADF80000694689
:1057F0002069FFF769FAA18A2069FFF744FB38BDE9
:105800002DE9F84380460E4617461C460025002029
:10581000208006F0FE06404600F0ADF831464046D6
:1058200000F03EF84046FFF769FF00B16D1E3946B3
:10583000404600F035F84046FFF760FF00B16D1EAE
:1058400046F00106404600F096F83146404600F02A
:1058500027F84046FFF752FF00B16D1E69464046EB
:10586000FFF771FF20889DF8001008432080404614
:1058700000F049F869464046FFF765FF20889DF82B
:1058800000104FF47F4202EA012108432080404685
:1058900000F055F8404600F086F82846BDE8F88349
:1058A0002DE9F04104460E460127072527E0A18A8D
:1058B0002069FFF7E6FA0120FEF7F8FE46FA05F048
:1058C00000F0010020B121896068FFF7DCFA03E0F5
:1058D00021896068FFF7D5FA0120FEF7E7FEA18A6B
:1058E0002069FFF7D0FA0520FEF7E0FEA18A2069C3
:1058F000FFF7C7FA0120FEF7D9FE681E45B2002D5A
:10590000D5DABDE8F08110B50446A18A2069FFF719
:10591000B8FA21896068FFF7B4FA0120FEF7C6FEE5
:10592000A18A2069FFF7AFFA0520FEF7BFFEA18A22
:105930002069FFF7A6FA0120FEF7B8FE10BD10B5EA
:105940000446A18A2069FFF79CFA21896068FFF765
:105950009AFA0120FEF7AAFEA18A2069FFF793FABE
:105960000520FEF7A3FEA18A2069FFF78AFA01202D
:10597000FEF79CFE10BD10B5044621896068FFF754
:1059800082FA0220FEF792FEA18A2069FFF77BFAD5
:105990000220FEF78BFE21896068FFF772FA022071
:1059A000FEF784FE10BD10B50446A18A2069FFF7FA
:1059B00068FA0120FEF77AFE21896068FFF761FA34
:1059C0000120FEF773FEA18A2069FFF75CFA02202E
:1059D000FEF76CFE21896068FFF755FA0120FEF79B
:1059E00065FE10BD2DE9F04180460D4616461F4666
:1059F000002405F0FE054046FFF7BDFF294640465E
:105A0000FFF74EFF4046FFF779FE00B1641E3146B6
:105A10004046FFF745FF4046FFF770FE00B1641EA9
:105A200039464046FFF73CFF4046FFF767FE00B1AE
:105A3000641E4046FFF7B7FF2046BDE8F08110B571
:105A4000012002F0B1FE00BF612002F08FFE0028AD
:105A5000FAD045F2555000F029F8042000F01AF869
:105A60004FF47A6000F01CF800F00CF800F002F837
:105A700010BD00004CF6CC400149086070470000A2
:105A8000003000404AF6AA20014908607047000033
:105A9000003000400149486070470000003000407D
:105AA00001498860704700000030004001490860EB
:105AB000704700000030004000211E4880F8B111FE
:105AC000C06CFF2802D11B48C16431E0194890F82E
:105AD0004C0000F0F000202803D117481749086057
:105AE00026E0144890F84C0000F0F000102803D194
:105AF0001348124908601BE00E4890F84C0000F073
:105B0000F000402803D10F480C49086010E0094814
:105B100090F84C0000F0F000802803D10A480749B3
:105B2000086005E000210348C164D0F8F411416524
:105B30007047000088090020C12B00089400002055
:105B40001D610008656000086D2900082DE9FE4F01
:105B500005460C46DFF8D491DFF8D4A1DFF8D4B1C4
:105B60004946284606F0E2FD074673480168484664
:105B700006F0DCFD804671480168404606F004FFEF
:105B80000646394606F000FC6D4908606A48006820
:105B90006C4908606C4801686C4806F0C7FD0290CB
:105BA0006B480168484606F0C1FD019069480168EC
:105BB000484606F0BBFD009067480168009806F073
:105BC000E3FE8046019906F071FF0746029906F050
:105BD000DBFB0646514606F0D7FB604908605A4891
:105BE0000168484606F0A2FD06465948016830465D
:105BF00006F0CAFE5A49086053480168484606F054
:105C000095FD064653480168304606F0BDFE5549ED
:105C1000086051464C48006806F0B6FB52490860DF
:105C200059464E48006806F0AFFB064631464B48E1
:105C3000006806F01DFC4D49086059464748006859
:105C400006F0A2FB064631464648006806F010FC06
:105C5000474908603A480168204606F027FF074692
:105C600042480168384606F061FD0646344801683E
:105C7000304606F089FB314908603148016820460A
:105C800006F014FF07463A480168384606F04EFD14
:105C900006462C480168304606F076FB2649086027
:105CA000324801684FF07E5006F000FF06462B4850
:105CB0000168304606F03AFD274908602B48016824
:105CC0004FF07E5006F0F2FE064625480168304649
:105CD00006F02CFD1E49086025480168254806F09D
:105CE00025FD07461D480168384606F01FFD06469B
:105CF0001C480168304606F047FB164908601C48FE
:105D000001681C4806F012FD074615480168384630
:105D100006F00CFD064614480168304606F034FBD8
:105D20000949086005480068BDE8FE8F0AD7A33C12
:105D30000AD7233C00002041D0000020CC000020E6
:105D4000C4000020C8000020F000002017B7D1399F
:105D5000E8000020EC000020E4000020D400002037
:105D6000D8000020DC000020E0000020F40000202B
:105D7000F8000020000080BF10B50948007838B94D
:105D800001200749087002210648FFF77AF806E06B
:105D900000200349087002210248FFF774F810BD83
:105DA000020100200018014008B50121402002F046
:105DB00063FC0220ADF8000010208DF803000220E3
:105DC0008DF8020069460448FEF77EFF0221024872
:105DD000FFF759F808BD00000018014010B5022176
:105DE0000148FFF750F810BD0018014010B502211E
:105DF0000148FFF746F810BD00180140F8B56946A4
:105E00000F2003F063FD0EE069460F2003F05EFDF6
:105E10009DF80000692800D106E0002401E0601C24
:105E2000C4B2322CFBDBEFE700BF0021112004F0ED
:105E30003DFD7021102004F039FD0121122004F0F5
:105E400035FD11E0002000906946122003F03EFD70
:105E50009DF8000000F0010000B906E0002401E018
:105E6000601CC4B2322CFBDBECE700BF0021012038
:105E700004F01CFD20210B2004F018FD00210D2052
:105E800004F014FD00210E2004F010FD4321102029
:105E900004F00CFD4221112004F008FD74211220B1
:105EA00004F004FD8C21132004F000FD00211420D7
:105EB00004F0FCFC0021152004F0F8FC0021162061
:105EC00004F0F4FCC421172004F0F0FC1021582049
:105ED00004F0ECFC3821182004F0E8FC38211920EB
:105EE00004F0E4FC002400203C49086037E0002076
:105EF000009069461E2003F0E9FC9DF8000000F0C8
:105F0000020002281DD100256946232003F0DEFC93
:105F10009DF8000005436946222003F0D7FC2802C3
:105F200005B29DF800000543284606F09FFB064693
:105F30002A480168304606F027FA28490860601CA4
:105F4000C4B2052C0BDD204606F0A8FB0646314600
:105F50002248006806F08CFA2049086000E0C6E795
:105F600000BF002437E00020009069461E2003F0A7
:105F7000ADFC9DF8000000F0020002281DD10025B4
:105F80006946232003F0A2FC9DF800000543694602
:105F9000222003F09BFC280205B29DF80000054377
:105FA000284606F063FB06460C480168304606F0BA
:105FB000EBF90A490860601CC4B21E2C0BDD2046B8
:105FC00006F06CFB064631460448006806F050FABD
:105FD0000249086000E0C6E700BFF8BDC00000202D
:105FE00008B5002400BFFFF7DFFE24E0601CC4B248
:105FF0001148006D28B9062C16DD0024FFF7BCFE01
:1060000012E00D48006D012802D1FFF7EFFE0BE012
:106010000948006D022805D1022C05DB0024FFF79A
:10602000ABFE01E0FFF7DAFEFFF72CFD6A46002128
:106030000A2001F00FF9D9E78809002010B54FF4C4
:1060400000410248FEF71FFF10BD0000000801409C
:1060500010B54FF400410248FEF713FF10BD0000D9
:106060000008014070B52A4890F84C0000F0F0009C
:10607000402805D1264890F84C0000F00F0018B1D8
:1060800024482549086070BD0020214981F8B001ED
:10609000486B4FF07E5106F077F904461C49B1F881
:1060A000420006F0FBFA0546214606F00BFB08D23B
:1060B0001749486B4FF07E5106F066F91449486560
:1060C00020E01349886B4FF07E5106F0EFFC044648
:1060D0000F49B1F8420006F0E1FA0546214606F004
:1060E000F1FB08D20A49886B4FF07E5106F0DEFCC6
:1060F0000749486506E00649B1F8420006F0CEFAC5
:10610000034948650121024880F8B11100BFBAE790
:1061100088090020B95A00089400002010B51E48D4
:1061200090F84C0000F0F000102803D01B481C49E8
:10613000086010BD0020184981F8B001084690F8A9
:106140004C0018280CD10121134880F8B1110146E8
:10615000486B4FF0804106F017F90F49486518E089
:106160000D4890F84C0014280CD101210A4880F801
:10617000B1110146886B4FF0804106F097FC06494B
:10618000486506E00021044880F8B111D0F8F41108
:10619000416500BFCDE7000088090020B95A00081A
:1061A000940000202DE9F04F89B082460C464FF054
:1061B000000BD9460021504606F084FB2FD85046EC
:1061C00006F0B6F8074605F05BF9054605F068FDF0
:1061D0008146504606F0ACF8CDE9000105F050F9D3
:1061E00005460E46504606F0A3F807462A463346B3
:1061F00005F0B4FFCDE9040199FBF4F004FB109520
:10620000284605F0AAFDCDE90201DDE9042305F0E9
:10621000FFFACDE9060105F0C9FA834656E02AF0F7
:10622000004B584606F084F8074605F029F9054664
:1062300005F036FD814699FBF4F004FB10995846B1
:1062400006F076F8CDE9000105F01AF9CDE9020172
:10625000584606F06DF80746DDE9022305F07EFF9B
:1062600005460E46484605F078FD2A463346CDE9F8
:10627000040105F0CDFA00221346CDE9060105F030
:10628000D3FC02D14FF0000B20E0204606F0EEF9DF
:1062900006463146584606F0EBF8054606F0AAF9E0
:1062A00000F10109504606F043F821F00048074686
:1062B00009FB04F005F051FD3A464346CDE90601DD
:1062C00005F04CFF054605F071FA8346584609B0C3
:1062D000BDE8F08F08B5002000F06EF802F01EF95E
:1062E0005CE02F4A2F49002000F08CF800283AD1BA
:1062F0002B4800782C49898A884202D028480078A7
:10630000D0B90020294908802949088025480288F9
:106310002849234801F0F2FE2549088008460088F4
:10632000002836DD1E48007898B3224A08460188C6
:10633000002000F0BFF82CE01C4801880088401CB9
:106340001A4A108047F23050814222DBFFF776FE76
:106350006A460021642000F07DFFFFF779FE0020EF
:106360001249088015E0114801880088401C0F4A36
:10637000108047F2305081420BDBFFF75FFE6A4628
:106380000021642000F066FFFFF762FE002007494D
:1063900008806A460021012000F05CFFA1E70000B0
:1063A0002C41002084000020880900208600002065
:1063B000820000200040002010B5044614B1012CDA
:1063C00014D109E003F06CFF0A480B4908600B4840
:1063D0000968C1F860020AE003F062FF0848064954
:1063E000486006484968C1F8600200E000BF00BF8D
:1063F00010BD0000A044002004010020C545000895
:10640000044700202DE9F04104460E4690462848F6
:1064100050F824000079AB2842D1254850F82400D8
:106420004179234850F824004079401C204A52F812
:1064300024205071062938DB56201D4951F82410BC
:10644000087100201A4951F824104871184850F872
:106450002400008830800020154951F8241008805D
:106460003188134A52F82420901DFCF71BFE074682
:10647000DFB900250EE00E4850F82400801D405D75
:1064800008F80500FF210A4850F82400801D4155F6
:10649000681C85B23088A842EDDC0020BDE8F081A0
:1064A0000020034951F8241048714FF0FF30F5E700
:1064B000040100202DE9F04105460E4690460024D7
:1064C00006E000BF00BF00BF00BF00BF601C84B279
:1064D0004CF250308442F4DB002406E000BF00BFE1
:1064E00000BF00BF00BF601C84B24CF25030844239
:1064F000F4DB002409E018F80410154850F82500D2
:1065000000F599700155601C84B2B442F3DB104968
:1065100051F8251001F599703146FCF7C3FD074687
:106520000B4850F8250000F5997087553A0A08483D
:1065300050F8250000F59970711C4254B21C90B2BD
:10654000034A52F82520D2F860128847BDE8F0814E
:106550000401002010B503F091FE002411E0022197
:10656000204600F04FF80020C4EBC401064A02EBBD
:1065700081010876C4EBC40102EB81018876601CBE
:10658000C4B2012CEBDB10BD8444002008B500BF71
:1065900000BF00F0D7F832E019480088401C1849C5
:1065A00008800846008840F6B831884203DC0020A5
:1065B00000F0E0F81EE01248008841F27071884255
:1065C00002DCFFF7C7FF15E00D48008842F22831D2
:1065D000884203DC002000F0E5F80BE00848008862
:1065E00042F6E061884202DCFFF7B4FF02E00020DF
:1065F000034908806A460021012000F02BFECBE70A
:106600008A00002070B504460D46012D0DD1C4EB63
:10661000C4020D4B03EB82021189C4EBC40203EBED
:1066200082025068FEF72FFC0CE0C4EBC402064B5C
:1066300003EB82021189C4EBC40203EB82025068AF
:10664000FEF71FFC70BD00008444002070B50446B6
:106650000D46012D1FD12148B0F8440068B9C4EBA4
:10666000C4021F4B03EB8202918AC4EBC40203EB0A
:1066700082021069FEF707FC2EE0C4EBC402184B3F
:1066800003EB8202918AC4EBC40203EB820210691D
:10669000FEF7F7FB20E0022D1ED11048B0F84400B1
:1066A00068B9C4EBC4020E4B03EB8202918AC4EBBF
:1066B000C40203EB82021069FEF7E3FB0CE0C4EBBB
:1066C000C402074B03EB8202918AC4EBC40203EBC2
:1066D00082021069FEF7D7FB70BD00008809002018
:1066E0008444002008B50121202001F0C5FF4FF4AB
:1066F0004040ADF8000010208DF8030003208DF815
:10670000020069460D48FEF7DFFA4FF400410B48DE
:10671000FEF7B7FB09480A4948604FF4004008817A
:1067200020200860054808614FF4804088822020BE
:10673000C86000200876887608BD0000001401407B
:106740008444002010B5FFF7CDFF03F08FFB10BD90
:1067500008B500BF0CE0FEF773F8FEF71FF9FDF770
:10676000E3FFFDF7B1FF6A460021052000F072FD4E
:10677000F1E7000010B50446FFF7ECFE0120C4EB82
:10678000C401064A02EB8101087605480470012124
:106790000078FFF75BFF03F05FFD10BD844400202D
:1067A000FC00002010B50446FFF7D4FE0220C4EB25
:1067B000C401064A02EB81010876054804700221F3
:1067C0000078FFF743FF03F047FD10BD844400202D
:1067D000FC00002008B54FF4A06000F065F81D2013
:1067E0008DF8000000208DF8010001208DF80200D6
:1067F0008DF80300684600F01FF80B208DF80000AC
:1068000000208DF8010002208DF8020001208DF893
:106810000300684600F010F834208DF800000120D5
:106820008DF8010000208DF8020001208DF8030092
:10683000684600F001F808BD70B5002100230F2262
:10684000C47804B3154C246804F4E064C4F5E0642F
:10685000210AC1F10403CA40447804FA03F18478A0
:106860001440214309010E4C0678A155047804F028
:106870001F050124AC4005786D11AD0005F1E02540
:10688000C5F8004109E0047804F01F050124AC407C
:10689000044D0678761145F8264070BD0CED00E0F9
:1068A00000E400E080E100E002490143024A116097
:1068B000704700000000FA050CED00E07047000092
:1068C00010B50348006810B101480068804710BD4A
:1068D0001000002070B5044600F082F800202B491B
:1068E00008702B4908702B4908702B4908602B4908
:1068F00008602B4908702B4908702B4908702B49F8
:1069000008602B4908602B4908602B48006858B183
:106910002A48056845B12848066803E0761E00202D
:1069200028602D1D002EF9D1002025490860254939
:1069300008602549086025490860254908602549FF
:106940000860254908602549087000F0BDFE00F088
:10695000EBFE204600F07CFF208800B170BD204691
:1069600000F094FF208800B1F8E7204600F040FDD9
:10697000208800B1F2E7204601F066FA208800B1D5
:10698000ECE7FFF79BFF00BFE8E7000024000020D2
:106990002C0000203C000020580000205C0000205B
:1069A0002D0000202E0000202F00002030000020AD
:1069B0003400002038000020A8CC0008A4CC000837
:1069C00004000020080000200C000020100000201F
:1069D00014000020180000201C00002046000020A9
:1069E000064800680649096800EB8100054908600F
:1069F0000846006820F0070008607047A4CC000833
:106A0000A8CC00086000002010B500242C480078B5
:106A1000012800D010BD00BFFBF7FCFB044600BFFF
:106A20002848007828B900BF2046FBF7F7FB00BFD5
:106A3000F0E724480078401E224908700846007894
:106A4000002805DD00BF2046FBF7E8FB00BFE1E7BB
:106A50001D480078002805DD00BF2046FBF7DEFB5F
:106A600000BFD7E700F01CFE184908700846007800
:106A700000EB4000164951F820001649086008460E
:106A8000006815490968884205D100BF2046FBF718
:106A9000C5FB00BFBEE70F480068406C401C0D49B5
:106AA000096848640D480068401C0C490860FBF701
:106AB00049FC00BF2046FBF7B1FB00BF00BFA9E7C0
:106AC0002C000020240000203C0000202E0000208C
:106AD000A00700205C00002058000020400000209B
:106AE00010B500241E480078002800DD10BD1D48A8
:106AF0000078002800DDF9E700BFFBF78BFB0446B8
:106B000000BF00F0CDFD184908700846007800EB82
:106B10004000164951F820001549086008460068F1
:106B200014490968884205D100BF2046FBF776FB6F
:106B300000BFDBE70E480068406C401C0C49096848
:106B400048640D480068401C0B490860FBF7F5FBE2
:106B500000BF2046FBF762FB00BF00BFC6E7000096
:106B6000240000203C0000202E000020A007002070
:106B70005C000020580000204000002010B50446B2
:106B800012480078E8B900F08BFD114908700846FA
:106B90000078104908700E48007800EB40000E495C
:106BA00051F820000D490860084600680C4908604B
:106BB000012006490870FBF7AFFB43F699202080BF
:106BC00002E045F68A60208010BD00002C00002005
:106BD0002E0000202D000020A00700205C000020D7
:106BE000580000202DE9FF4F85B004469346DDE9AB
:106BF0001985159F139E00200290564800780028A2
:106C000005DD47F24A10288009B0BDE8F08F1CB9B5
:106C100047F2AD102880F7E7BBF1000F03D147F230
:106C20004F102880F0E71EB946F62F602880EBE76A
:106C300049480068874203D246F630602880E3E77F
:106C40001498B84203D346F631602880DCE71298E6
:106C5000202803D346F273202880D5E712981F28F6
:106C600006D13E48844203D046F273202880CBE709
:106C7000204600F017FE0020288008F0010088B1AF
:106C800008F0020070B1B2460020049007E0002036
:106C9000CAF800000AF1040A0498401C0490049801
:106CA000B842F4D3149806EB80000390CDE9007845
:106CB00032465846039B089900F022FA8246129801
:106CC00084F82300C4F800A018986060A4F8248019
:106CD0004FF0000908E0002104F1380040F82910C5
:106CE00009F1010000F0FF09B9F1000FF3D02046CF
:106CF00000F03AF800BF00BFFBF78CFA029000BF2B
:106D0000FCF786F900BF94F8230000F0E9FC204668
:106D100000F052FD12480088401C114908801148BB
:106D20000078012809D000BFFCF78CF900BF029859
:106D3000FBF774FA00BF00BF66E700BFFCF782F9FB
:106D400000BF0298FBF76AFA00BF00BFFFF7C8FE5A
:106D500000BF59E724000020D4CC000838070020E9
:106D6000440000202C00002010B5044603480068B1
:106D700018B1204601490968884710BD0400002069
:106D800070B504460D46002644480078002803DD0F
:106D900047F24E10288070BD4148844203D147F22B
:106DA0004C102880F7E79CB900BF00BFFBF732FA10
:106DB000064600BFFCF72CF900BF3A48046800BF44
:106DC000FCF740F900BF3046FBF728FA00BF00BFD0
:106DD00000BF00BFFBF71EFA064600BFFCF718F91C
:106DE00000BF94F8220008282DD2DFE800F0040943
:106DF0000E10080A0F11204600F0FCFC30E02FE0D6
:106E000000BF204600F01EFF2AE000BF00BF00BF09
:106E100094F82000082810D2DFE800F004070508E5
:106E2000090A0B0600BF00BF08E000BF00BF00BF9B
:106E300000BF204600F088FB00E000BF00BF2046F6
:106E400000F000FF0CE000BFFCF7FCF800BF30468C
:106E5000FBF7E4F900BF00BF46F62D6028809AE7F3
:106E600000BF204600F022F80F480088401E0E495F
:106E70000880204600F016FDFF2084F8220000BFA5
:106E8000FCF7E0F800BF3046FBF7C8F900BF00BFD1
:106E900000202880FFF724FE00BF7CE724000020AC
:106EA00038070020580000204400002010B5044698
:106EB0000348006818B1204601490968884710BD99
:106EC0000800002010B504460348006818B12046A9
:106ED00001490968884710BD0C0000202DE9F047E2
:106EE00080460E4614461D464FF000097148007852
:106EF000002805DD46F2AE1028800020BDE8F087AE
:106F00001EB1B6F5004F02D100E000BF04E045F627
:106F1000256028800020F1E700BF0CB10020206030
:106F200000BF00BFFBF776F9814600BFFCF770F8A1
:106F300000BF61480068C06A90B35F480068C06ADB
:106F4000401E5D490968C8625B480068C76A1CB199
:106F500059480068806A2060FCF79EF85649096825
:106F6000896A401A54490968886553480068C06DA9
:106F700051490968896D884205D24F480068806D83
:106F80004D490968C86500BFFCF75CF800BF48467A
:106F9000FBF744F900BF00BF002028803846ADE76A
:106FA000FFE706F4004068B100BFFCF74BF800BFF4
:106FB0004846FBF733F900BF00BF46F2B010288007
:106FC00000209BE73D48007800280DDD00BFFCF75E
:106FD00039F800BF4846FBF721F900BF00BF46F66D
:106FE00063502880002089E7434607220021084695
:106FF00000F036FA00BFFCF725F800BF4846FBF763
:107000000DF900BF00BFFFF76BFD00BF00BFFBF72E
:1070100001F9814600BFFBF7FBFF00BF264800686F
:1070200090F8210020B1012821D003282FD127E09A
:10703000D4B121480068806A2060FCF72DF81E4911
:107040000968896A401A1C49096888651A480068F5
:10705000C06D19490968896D884205D216480068D3
:10706000806D15490968C8650020288013E01CB1AF
:1070700011480068806A206046F2A91028800AE062
:107080000CB10020206047F2D920288003E046F6AA
:107090002E60288000BF00BF07480068C76A00BF95
:1070A000FBF7D0FF00BF4846FBF7B8F800BF00BFB2
:1070B000384623E724000020580000203C00002030
:1070C0002DE9F04106460D4614461DB1B5F5004FB9
:1070D00002D100E000BF05E045F6256020800020D9
:1070E000BDE8F08100BFFBF7D7FF8046234642464C
:1070F0002946304600F016FC07463846F0E7000007
:10710000F0B50446DDE9055602EB850020F00700E6
:107110004FF0807C071F3846C7F800C0071F38466D
:107120003C60DFF89CC0071F3846C7F800C04FF02E
:10713000123C071F3846C7F800C04FF0033C071F3A
:107140003846C7F800C04FF0023C071F3846C7F862
:1071500000C0071F38463B60071F384639604FF0B4
:10716000113C071F3846C7F800C04FF0103C071FFE
:107170003846C7F800C04FF0093C071F3846C7F82B
:1071800000C04FF0083C071F3846C7F800C04FF05A
:10719000073C071F3846C7F800C04FF0063C071FE2
:1071A0003846C7F800C04FF0053C071F3846C7F8FF
:1071B00000C04FF0043C071F3846C7F800C0F0BDC0
:1071C0000D79000870B51F48006810B11D480068AF
:1071D0008047FBF761FF04461B4800681B490968AC
:1071E000884210D018480068C06C201A16490968F7
:1071F000886415480068006D13490968896C084463
:1072000011490968086511480068C464FBF7EAFE83
:1072100005460D480068006EA84202D20A48006880
:10722000056609480068406E09490968884204D229
:107230000748006804490968486600200449086056
:1072400070BD000018000020580000205C000020E5
:10725000380000202DE9F04105460E46144600276F
:107260002A480078002804DD47F275202080BDE818
:10727000F08127480078002803DD46F6635020801F
:10728000F5E736B1022E05D0042E0AD0082E09D11A
:1072900001E000BF00BF1DB947F27E202080E6E775
:1072A00004E003E045F625602080E0E700BF00BF72
:1072B00000BFFAF7AFFF074600BFFBF7A9FE00BF0C
:1072C0002346324629461348006800F05DFC2088BA
:1072D00048B100BFFBF7B6FE00BF3846FAF79EFF85
:1072E00000BF00BFC3E70B48006800F083FA00BF8F
:1072F000FBF7A8FE00BF3846FAF790FF00BF00BFBB
:10730000FFF7EEFB0020208000BFB0E72400002044
:107310003C0000205800002008B500F009F86A463B
:1073200000210248FFF7CCFE08BD00002009002024
:1073300010B50348006810B101480068804710BDCF
:107340001C00002010B5002400BF00BFFAF762FF48
:10735000044600BFFBF75CFE00BF09480078401CF4
:107360000749087000BFFBF76DFE00BF2046FAF723
:1073700055FF00BF00BFFFF7CFFFFFF745FB10BD74
:107380002400002001464A1E4FF0E0235A61084ABB
:10739000106820F07F4000BF10601A46126942F06A
:1073A00005021A611A46126942F002021A61704718
:1073B00020ED00E0002418E000BF00BFFAF72AFF2C
:1073C000044600BFFBF724FE00BF08480068401CCD
:1073D0000649086000BFFBF735FE00BF2046FAF7FC
:1073E0001DFF00BF00BFFFF76BFAE5E7200000209C
:1073F00010B58AB0044600200E4908600B20002119
:107400000591CDE90704069108460B4909680B4A26
:1074100012680B4B1B68CDE90132CDE903101F2028
:107420000023084A08A100900C48FFF7DBFB0AB0D4
:1074300010BD00002000002080CC00087CCC00089B
:1074400078CC0008B573000875432F4F532D494978
:10745000492049646C65205461736B003807002033
:107460002DE9F04105460C4616461F4612480068B5
